:020000040800F2
:10000000B81C0020450100081309000887080008F3
:100010000F090008CD0600087F0F0008000000004F
:10002000000000000000000000000000FD0B0008C0
:10003000D10600080000000099090008E90C00083A
:100040005F0100085F0100085F010008E50A000881
:100050005F0100085F0100085F0100085F01000800
:100060005F0100085F0100085F0100085F010008F0
:100070005F0100085F0100085F0100085F010008E0
:100080005F0100085F0100085F0100085F010008D0
:100090005F0100085F0100085F0100085F010008C0
:1000A0005F0100085F0100085F0100085F010008B0
:1000B0005F0100085F0100085F0100085F010008A0
:1000C0005F0100085F0100085F0100085F01000890
:1000D0005F010008750D0008890D00089D0D0008DE
:1000E0005F0100085F0100085F0100085F01000870
:1000F0005F0100085F0100085F0100085F01000860
:100100005F0100085F0100085F0100085F0100084F
:10011000710D0008730D00085F0100085F01000801
:100120005F0100085F0100085F0100085F0100082F
:10013000DFF80CD000F02CFA00480047D52000086A
:10014000B81C00200648804706480047FEE7FEE747
:10015000FEE7FEE7FEE7FEE7FEE7FEE7FEE7FEE777
:10016000110D000831010008D2B201E000F8012BA6
:10017000491EFBD270470022F6E710B513460A4627
:1001800004461946FFF7F0FF204610BD421C10F848
:10019000011B0029FBD1801A704730B50B46014680
:1001A00000202022012409E021FA02F59D4205D316
:1001B00003FA02F5491B04FA02F52844151EA2F1C0
:1001C0000102F1DC30BD2DE9F05F054600209246CA
:1001D0009B4688460646814640241BE02846414609
:1001E0004746224600F0F5F953465A46C01A914157
:1001F00010D311461846224600F0DCF92D1A67EBA1
:1002000001084F4622460120002100F0D3F917EBE8
:1002100000094E41201EA4F10104DFDC48463146AE
:100220002A464346BDE8F09F2DE9FE4F804681EA0D
:100230000300C00F0C46009021F0004123F0004560
:10024000B8EB0200A94105D24046214690461C4623
:100250000B46024623F00040104347D0270DC7F35A
:100260000A00C3F30A510290401A019040286BDA49
:10027000C3F3130040F4801B0098924620B1002382
:10028000D2EB030A63EB0B0B01985946C0F1400215
:10029000504600F08FF906460D4650465946019AE1
:1002A00000F0A7F910EB08006141002487EA115221
:1002B00084EAE7731A4340D0009A62B3019A012A94
:1002C0004FEA075215DC001B61EB02014FF00042C0
:1002D00002EA0752CDE90042001C41F58011324686
:1002E0002B4600F0A5F903B0BDE8F08F404621464B
:1002F000F9E7001B61EB0201001C41F580130018B7
:100300005B412018A2F5001747EB030140EAD570C6
:10031000B6196D4111E06D084FEA360645EAC07521
:100320004FEA0752001B61EB0201001C41F58011EE
:1003300049084FEA30000019514132462B4603B0BC
:10034000BDE8F04F00F067B900980122400000239B
:10035000D0EB020263EBE073009821464FEAE074B1
:10036000B8EB000061EB0401E9E783F000435BE7D1
:1003700081F0004158E72DE9FE4F81EA030404F0C3
:10038000004421F0004100944FF0000B23F00043A3
:1003900050EA01045ED052EA03045BD0C3F30A546E
:1003A000C1F30A552C44A4F2F3340194A0FB025487
:1003B000C1F3130141F48011C3F3130343F4801319
:1003C00001FB024400FB034E840A970A44EA81546D
:1003D00047EA8357A4FB076802958D0A05FB07854A
:1003E0004FEA932C04FB0C542705029D4FEA065854
:1003F00047EA1637B5EB08056EEB070C870E920E31
:1004000047EA811742EA8312A7FB0201B6EB0B0110
:1004100064EB00042B0D43EA0C335E1844EB1C50D4
:10042000DA465146E7FB0201C5F313044FEA0B33EA
:1004300043EA14534FEA0432019C43EA0603A4F151
:100440000C040294009CCDE900B400F0F1F803B074
:10045000BDE8F08F00200146F9E72DE9F04D81EA73
:10046000030404F0004B21F0004514464FF0000A4D
:1004700023F0004150EA050220D054EA01021DD0C9
:10048000C5F30A570246C5F31303C1F31300C1F3C2
:100490000A5640F4801543F48013A7EB0608101B9E
:1004A000D64608F2FD3873EB050002D308F10108C7
:1004B00001E092185B41B8F1000F03DA0020014619
:1004C000BDE8F08D00204FF48011064684460EE012
:1004D000171B73EB050705D3121B63EB05030643DC
:1004E0004CEA010C49084FEA300092185B4150EA8F
:1004F0000107EDD152EA030012D082EA040083EA38
:100500000501084305D0101BAB4106D20122002390
:1005100006E000224FF0004302E06FF001025310AA
:100520001AEB06004CEB085110EB0A0041EB0B01F3
:10053000BDE8F04D00F06FB8C1F30A52C1F31301EA
:1005400040F2FF3341F480119A4202DA0020014662
:10055000704740F233439A42A2F2334202DC5242E5
:1005600000F037B800F026B830B5002904DB4FF0B2
:100570000044404264EB0101002B04DB4FF00044D7
:10058000524264EB0303994208BF904230BD000021
:10059000064C074D06E0E06840F0010394E80700D0
:1005A00098471034AC42F6D3FFF7C6FDD82B0008AD
:1005B000F82B0008202A04DB203A00FA02F1002080
:1005C00070479140C2F1200320FA03F31943904091
:1005D0007047202A04DB203A21FA02F000217047FC
:1005E00021FA02F3D040C2F120029140084319469B
:1005F0007047202A06DBCB17203A41FA02F043EA83
:10060000E07306E041FA02F3D040C2F120029140CB
:1006100008431946704710B5002B08DA401C41F119
:10062000000192185B411A4301D120F0010010BD76
:100630002DE9F04D92469B4611B1B1FA81F202E0EC
:10064000B0FA80F220329046FFF7B4FF04460F461E
:1006500040EA0A0041EA0B0153465A46084313D0C8
:10066000114653EA010019D0C8F140025046FFF785
:10067000B0FF05460E46504659464246FFF79AFFE0
:10068000084305D0012004E020463946BDE8F08D3E
:100690000020054346EAE0762C4337430A98630579
:1006A000E40AA0EB08000022FD0A44EA47540A309D
:1006B00002D500200146E9E7010510196941DDE98D
:1006C000084500196941BDE8F04DA4E700BFFEE709
:1006D0007047000008B501211D2000F06FF90F20C0
:1006E000ADF8000003208DF8020010208DF8030003
:1006F00069461A4800F038F80121184800F0BFF8A0
:100700000221164800F0BBF80421144800F0B9F8A3
:100710000821124800F0B5F84FF40070ADF8000061
:1007200003208DF8020010208DF8030069460C4864
:1007300000F01AF84FF40071094800F0A2F84020C8
:10074000ADF8000003208DF8020048208DF803006A
:100750006946044800F008F808BD000000080140A0
:10076000000C0140001001402DE9F0410246002537
:100770000026002000230024002791F803C00CF07D
:100780000F0591F803C00CF0100CBCF1000F03D062
:1007900091F802C04CEA050591F800C0BCF1000FC9
:1007A00031D0146800202BE04FF0010C0CFA00F35C
:1007B000B1F800C00CEA03069E4220D183004FF03E
:1007C0000F0C0CFA03F7BC4305FA03FC4CEA0404D3
:1007D00091F803C0BCF1280F06D14FF0010C0CFAC0
:1007E00000FCC2F814C00AE091F803C0BCF1480F45
:1007F00005D14FF0010C0CFA00FCC2F810C0401CEF
:100800000828D1D31460B1F800C0BCF1FF0F34DD6B
:10081000546800202EE000F1080C4FF0010808FA9F
:100820000CF3B1F800C00CEA03069E4221D183000C
:100830004FF00F0C0CFA03F7BC4305FA03FC4CEA2B
:10084000040491F803C0BCF1280F05D100F1080C95
:1008500008FA0CF8C2F8148091F803C0BCF1480FF4
:1008600007D100F1080C4FF0010808FA0CF8C2F8A3
:100870001080401C0828CED35460BDE8F08141614F
:1008800070470161704700BFFEE710B5002000F01F
:1008900079FB10BD10B5012000F074FB10BD70B5E0
:1008A00004460025FFF7F1FFC4F3074000F010F8FD
:1008B000C4F3072000F00CF804F0F80000F008F88A
:1008C000002000F005F80546FFF7E4FF284670BD5C
:1008D00010B50446204600F03DF910BD70B5044641
:1008E0000D46FFF7D2FFC4F30740FFF7F1FFC4F353
:1008F0000720FFF7EDFF04F0F801091DC8B2FFF76C
:10090000E7FF2846FFF7E4FFFFF7C4FF70BD00BF15
:10091000FEE7704770B5002100230F22C47804B3AE
:10092000154C246804F4E064C4F5E064210AC1F1C4
:100930000403CA40447804FA03F184781440214344
:1009400009010E4C0678A155047804F01F05012416
:10095000AC4005786D11AD0005F1E025C5F800410A
:1009600009E0047804F01F050124AC40044D06782A
:10097000761145F8264070BD0CED00E000E400E083
:1009800080E100E002490143024A11607047000023
:100990000000FA050CED00E07047000029B1064A9E
:1009A000D2690243044BDA6104E0034AD26982430C
:1009B000014BDA61704700000010024029B1064A7D
:1009C00092690243044B9A6104E0034A92698243AC
:1009D000014B9A61704700000010024030B50021C1
:1009E0000022002400232D4D6D6805F00C0121B17B
:1009F000042905D0082923D105E0294D056022E00E
:100A0000274D05601FE0254D6D6805F47012234DDC
:100A10006D6805F48034022505EB92421CB9214D26
:100A2000554305600BE01D4D6D6805F400351DB1A3
:100A30001C4D5543056002E0194D5543056002E029
:100A4000174D056000BF00BF144D6D6805F0F00143
:100A50000909154D6B5C0568DD4045600F4D6D68FB
:100A600005F4E061090A104D6B5C4568DD40856066
:100A70000A4D6D6805F46051C90A0B4D6B5C456801
:100A8000DD40C560054D6D6805F44041890B074D9B
:100A90006B5CC568B5FBF3F5056130BD0010024025
:100AA00000127A0000093D001400002024000020FC
:100AB000024909888143014A118070470428004097
:100AC00001460020064A12880A40D0B2044A121F8A
:100AD00012880A4012B108B1012000E000207047DE
:100AE0000428004010B50120FFF7EAFF10B10120F3
:100AF000074908700220FFF7E3FF10B10220FFF75B
:100B0000D7FF0120FFF7D4FF00F004F810BD00006C
:100B10003400002000BF0348008800F020000028B7
:100B2000F9D070470428004010B54FF40071084810
:100B3000FFF7A5FE962001F077F84FF40071044806
:100B4000FFF79FFE4FF4C86001F062F810BD00008F
:100B5000000C014010B5044600BF02210A4800F015
:100B600021F80028F9D02146074800F027F800BFF7
:100B70000121054800F016F80028F9D0024800F0DD
:100B80001AF8C0B210BD00000038004021B1028840
:100B900042F04002028004E002884FF6BF731A4020
:100BA000028070470246002013890B400BB10120E0
:100BB00000E00020704701468889704781817047B6
:100BC00010B50022028802F441520B884C8823435E
:100BD0008C882343CC8823430C8923434C892343AB
:100BE0008C892343CC8923431A430280838B4FF2A1
:100BF000FF74234083830B8A038210BD704710B5B6
:100C000000F002F810BD00000CB50020019000902B
:100C10003348006840F480303149086000BF3048F4
:100C2000006800F4003000900198401C019000988A
:100C300018B90198B0F5A06FF1D12948006800F407
:100C4000003010B10120009001E0002000900098D9
:100C5000012843D12348006840F010002149086072
:100C60000846006820F0030008600846006840F06D
:100C7000020008601A484068194948600846406800
:100C800048600846406840F4806048600846406814
:100C900020F47C1048600846406840F4E810486042
:100CA0000846006840F08070086000BF0C4800688B
:100CB00000F000700028F9D00948406820F00300D7
:100CC000074948600846406840F00200486000BF9D
:100CD0000348406800F00C000828F9D10CBD000062
:100CE000001002400020024007480088401C00B26B
:100CF000054908800548006820B104480068401E86
:100D000002490860704700002C00002030000020DD
:100D100010B51348006840F001001149086008460A
:100D20004068104908400E494860084600680E496E
:100D300008400B4908600846006820F480200860DD
:100D40000846406820F4FE0048604FF41F008860A9
:100D5000FFF755FF4FF000600449086010BD000028
:100D6000001002400000FFF8FFFFF6FE08ED00E073
:100D70007047704710B50249024801F087FE10BD68
:100D8000700600200038014010B50249024801F009
:100D90007DFE10BD800800200044004010B50249CF
:100DA000024801F073FE10BD900A00200048004088
:100DB00001F40072B2F5007F00D100BFCA43028087
:100DC000704721B1828942F40052828104E0828915
:100DD0004DF6FF731A408281704702460020B1F53C
:100DE000007F00D100BF13880B400BB1012000E051
:100DF0000020704770B50246002400230025002023
:100E000040F66A16B14200D100BFC1F3421501F0AD
:100E10001F03012606FA03F3012D02D19689334000
:100E200006E0022D02D1168A334001E0968A334053
:100E30000C12012606FA04F41688344013B10CB1E2
:100E4000012000E0002070BDF0B50346002400261C
:100E50000025002040F66A17B94200D100BF1846AD
:100E6000C1F3421401F01F06012707FA06F5012C11
:100E700001D10C3004E0022C01D1103000E014301C
:100E80001AB107682F43076002E00768AF430760A5
:100E9000F0BD00002DE9F04786B005460E4600245F
:100EA000A24600BFA1460027B08900B100BF2F466F
:100EB0002C8A4CF6FF700440F08804432C82AC89E5
:100EC0004EF6F3100440B088318908437189084315
:100ED0000443AC81AC8A4FF6FF400440B089044320
:100EE000AC8201A8FFF77AFD1F48874202D1DDF8E6
:100EF00010A001E0DDF80CA0A88900F4004040B18A
:100F00000AEBCA0000EB0A1031684900B0FBF1F8A7
:100F100007E00AEBCA0000EB0A1031688900B0FB59
:100F2000F1F86420B8FBF0F004012009642101FB12
:100F30001089A88900F4004040B1322000EBC900BC
:100F4000B0FBF1F000F00700044308E0322000EBB2
:100F500009106421B0FBF1F000F00F0004432C8174
:100F600006B0BDE8F08700000038014001468888DF
:100F7000C0F308007047C1F308028280704700BFC9
:100F8000FEE7000010B504462CB94FF48051054827
:100F9000FFF775FC05E0012C03D121030148FFF7A1
:100FA00070FC10BD000C014000B587B00121880322
:100FB000FFF7F4FC01210920FFF700FD4FF460402A
:100FC000ADF8040003208DF8060018208DF8070006
:100FD00001A91D48FFF7C8FB4FF48050ADF804008D
:100FE00003208DF8060010208DF8070001A916488F
:100FF000FFF7BAFB4FF480511348FFF742FC002083
:10100000ADF808004FF48270ADF80A000020ADF88A
:101010000C00ADF80E00ADF810004FF40070ADF804
:1010200012000820ADF814000020ADF816000720CB
:10103000ADF8180002A90548FFF7C2FD01210348D9
:10104000FFF7A4FD07B000BD000C014000380040D0
:101050000FB4054B10B503A9044A029800F0DCF860
:1010600010BC5DF814FB0000371C00085C00002079
:1010700037B514460846064B6A46214600F076F915
:1010800004466946002000F008FD20463EBD0000F1
:101090009B1A000802E008C8121F08C1002AFAD1F2
:1010A00070477047002001E001C1121F002AFBD1E8
:1010B000704700002DE9FF5FDDE90220010DDDF83A
:1010C00038B0024318D044F61050A1F2FF3141432A
:1010D0000D140F98012820D0A5EB0B00401C5FEAEF
:1010E000000A4FF00004474EDFF81C91A04650461E
:1010F00016D5CAF1000728E00F98012443A2012861
:1011000008D0002100980F9BC0E90021C0E90243EC
:10111000BDE8FF9F6FEA0B01F4E7CBF10000DEE7CB
:10112000074612E0F80707D02246334640464946B4
:10113000FFF721F980468946224633461046194674
:10114000FFF719F904460E467F10002FEAD1DDE9BA
:101150000201BAF1000F42464B4602DAFFF70BF9E3
:1011600001E0FFF77AF904460E460022284BFFF70C
:10117000FBF903D84FF0FF30014607E00022254B72
:1011800020463146FFF750F8FFF7D6F9102409E062
:10119000002C0ADB0A220023FFF715F8019B3032EE
:1011A0001A55641E50EA0102F2D1641C019AC4F17E
:1011B000110314440F9A012A03D0012208430DD1D0
:1011C0000AE0084304D000204FF0110B0F9080E795
:1011D000A3EB0B056D1E0DE05B4504DD4FF0000237
:1011E00005F1010504E003DA4FF00002A5F1010565
:1011F000002AECD000980F99C0E90231C0E90045FF
:1012000086E70000000024400000F03F30000000AE
:101210000000F0430000E03F2DE9FF4F89B09B46FE
:101220000446002506E025280BD05A460B99904726
:10123000641C6D1C20780028F5D10DB02846BDE84F
:10124000F08F0027B8460122474900E0074314F811
:10125000013F203B02FA03F00842F7D120782E2804
:1012600019D114F8010F47F004072A280ED06FF0A7
:101270002F022078A0F1300109290CD808EB880151
:1012800002EB410100EB0108641CF2E70A98641CC0
:1012900050F8048B0A9020780028CED0642808D01B
:1012A000692806D075281ED05A460B9990476D1CA8
:1012B00058E00A994FF00A0901C90A91002802DA98
:1012C00040422D2102E0390504D52B218DF8201054
:1012D000012103E0F90704D02021F7E78A4608AE90
:1012E0000DE00021FAE70A994FF00A0901C90A91B5
:1012F000F7E74946FEF751FF303106F8011D002897
:10130000F7D1ADEB060000F12009780701D44FF0CA
:101310000108C84502DDA8EB090000E00020804676
:10132000002706E008A85A46C05D0B9990476D1C3F
:101330007F1C5745F6DB04E030205A460B99904756
:101340006D1CB8F10001A8F10108F5DC05E016F804
:10135000010B5A460B9990476D1CB9F10001A9F198
:101360000109F4DC641C65E7092801002DE9FF4F41
:1013700095B09B468946064600250FE2252877D181
:1013800000242746F84A0121059400E0044316F89A
:10139000013F203B01FA03F01042F7D130782A28B0
:1013A00011D06FF02F033078A0F13002092A16D83F
:1013B000059A44F0020402EB820203EB420210445D
:1013C000761C0590EFE759F8042B0592002A03DA02
:1013D000504244F40054059044F00204761C3078E6
:1013E0002E2816D116F8010F44F004042A280DD037
:1013F0006FF02F023078A0F13003092B09D807EBEA
:10140000870302EB4303C718761CF3E759F8047B04
:10141000761C30786C280FD006DC4C2817D0682852
:101420000DD06A2814D104E0742810D07A280FD186
:101430000DE044F400140AE044F4801401E044F4A4
:1014400040147278824202D104F58014761C761C16
:10145000307866280BD013DC582877D009DC0028B8
:1014600075D04528F6D04628F4D047281AD19DE1FA
:1014700018E0632835D0642879D0652812D195E129
:10148000702873D008DC6728F1D069286FD06E28E7
:101490000DD06F2806D1B5E073282CD0752875D0F3
:1014A000782874D05A46179990476D1C75E1C4F39B
:1014B0000250022809D003280DD0D9F800100428C2
:1014C0000DD00D6009F1040967E1D9F80010EA17A1
:1014D000C1E90052F6E7D9F800100D80F2E70D706F
:1014E000F0E719F8041B8DF8001000208DF80100BA
:1014F000EA46012003E059F804AB4FF0FF306107E2
:101500004FF0000102D40DE008F101018846B94214
:101510000FDA8045F8DB1AF808100029F4D108E04A
:1015200008F1010188468142FADB1AF80810002907
:10153000F6D105985B46A0EB080721463846179A76
:1015400000F094FA284400EB080507E04DE029E19B
:101550000DE01AF8010B5A4617999047B8F10108A7
:10156000F7D25B4621463846179A13E142E00A2239
:101570000092C4F302524FF0000A022A08D059F830
:1015800004CB032A4FEAEC710AD00DE029E02AE0EF
:1015900009F1070121F00702F2E802C1914609E0D2
:1015A0000FFA8CFC4FEAEC71042A03D14FFA8CFC41
:1015B0004FEAEC71002907DA0A460021DCF1000C41
:1015C00061EB02012D2202E0220504D52B228DF8C9
:1015D0000420012203E0E20701D02022F7E7904631
:1015E00059E00A2102E010220DE010214FF0000A1C
:1015F00000910BE010224FF0000A44F00404082789
:10160000009203E008224FF0000A0092C4F3025255
:10161000022A05D059F804CB0021032A08D009E09A
:1016200009F1070121F00702F2E802C1914605E045
:101630001FFA8CFC042A01D10CF0FF0C4FF00008BB
:10164000220728D5702806D0009B83F0100353EAA8
:101650000A0305D00EE040228DF80420012208E0A4
:101660005CEA010206D030228DF804208DF80500D6
:1016700002229046009B83F0080353EA0A030AD132
:101680005CEA010201D1620705D530228DF8042001
:101690004FF001087F1E582804D034A003900EA8F4
:1016A00002900DE036A0F9E753466046009AFEF737
:1016B0008AFD84460398825C0298401E0290027064
:1016C0005CEA0100F0D1029806A9081A00F1200A8C
:1016D000600702D524F4803400E00127574502DD7D
:1016E000A7EB0A0000E0002000EB0A01009005983B
:1016F0004144401A0590E00306D45B462146179A00
:10170000059800F0B3F90544002706E001A85A4601
:10171000C05D179990476D1C7F1C4745F6DBE003C1
:101720000CD55B462146179A059800F09FF90544B1
:1017300004E030205A46179990476D1C0099481EC6
:1017400000900029F5DC08E0029802995A460078DA
:10175000491C0291179990476D1CBAF10001AAF13A
:10176000010AF1DC65E10000092801003031323363
:1017700034353637383961626364656600000000CD
:1017800030313233343536373839414243444546B7
:101790000000000000F058F90544761C307800285D
:1017A0007FF4ECAD19B02846BDE8F08F620700D495
:1017B000062709F1070222F0070CFCE80223E146A4
:1017C00003F000485FEA080C02D00FF2702C0DE025
:1017D0005FEA045C02D50FF2682C07E05FEAC47C84
:1017E00002D00FF2602C01E0AFF2700C4FF0FF3826
:1017F00023F00043CDF850C065280CD006DC452806
:1018000009D046281DD047283DD13DE0662818D094
:1018100067287ED138E00021112F01DB112000E084
:10182000781CCDE9000106A90EA8FFF743FCDDE90D
:101830000F010E9A03910021009207F1010A049111
:101840004DE04FF000400097CDE9011006A90EA829
:10185000FFF730FCDDE90F0203920E9B1199002285
:10186000DDF80CA00093049211B9791C00EB010A79
:10187000B7EB0A0004D4C0F1FF3007F1010A04906D
:10188000AAEB0700019044E0012F00DA01270021B4
:10189000112F01DD112000E03846CDE9000106A935
:1018A0000EA8FFF707FCDDE90F010E9A0391002156
:1018B00004910092BA4621070CD40399514500DAED
:1018C0008A46BAF1010F05DD009AAAF10101515CC7
:1018D000302908D0B84202DA10F1040F06DA0121EB
:1018E000CDE9011015E0AAF10101E9E7002805DCC6
:1018F000049901440491AAEB000102E0411C514506
:1019000000DD8A460499401A401C01904FF00040C7
:101910000290200704D40198504501DBCDF80480E3
:1019200000208DF84F0002980DF14F07B0F1004FE5
:1019300025D02B200E9002984FF0020800280CDAD8
:10194000404202902D200E9007E00A210298FEF7F7
:1019500024FC3031029007F8011DB8F10001A8F114
:101960000108F2DC02980028EFD1791E0E98087069
:10197000307800F0200040F0450007F8020D12A872
:10198000C01B00F107081498007800B1012000EB9B
:101990000A01019801EBE07105984144401A401E8C
:1019A0000590E00306D45B462146179A059800F09F
:1019B0005DF805441498007818B15A461799904775
:1019C0006D1CE00324D55B462146179A059800F06C
:1019D0004DF805441CE00498002807DBDDE903010D
:1019E000884203DD0098405C179901E01799302088
:1019F0005A469047049805F10105401C049001984F
:101A0000401E019004D12E205A46179990476D1C14
:101A1000BAF10001AAF1010ADDDC05E017F8010BBB
:101A20005A46179990476D1CB8F10001A8F10108BA
:101A3000F4DC5B462146179A0598ABE62D000000C2
:101A40002B000000200000002DE9F0410446002595
:101A50001E461746880404D405E039462020B047C6
:101A60006D1C641EF9D52846BDE8F0812DE9F041D2
:101A7000044600251E469046C80301D5302700E0E5
:101A80002027880404D505E041463846B0476D1C40
:101A9000641EF9D52846BDE8F0810A68531C0B6026
:101AA0001070704710B504464FF4847101EB441078
:101AB0001021FEF713FF00BF4FF4847101EB4410B7
:101AC000FEF7EDFE0028F7D14FF4027101EB441050
:101AD000FF21FEF703FF10BD2DE9F04105460C463E
:101AE00016462078FF2808D16078FF2805D1A07815
:101AF000FF2802D1E078FF2808D0207828B9607844
:101B000018B9A07808B9E07800B10EB900275CE0F8
:101B10000127217840F6084202EB4510FEF7DEFE71
:101B2000617840F6085202EB4510FEF7D7FEA17827
:101B300040F6086202EB4510FEF7D0FEE17840F671
:101B4000087202EB4510FEF7C9FE310A41F20802A5
:101B500002EB4510FEF7C2FEF1B241F2081202EBB1
:101B60004510FEF7BBFE4FF4847101EB45100421D4
:101B7000FEF7B4FE00BF4FF4847101EB4510FEF791
:101B80008EFE0028F7D117E04FF4427101EB4510AB
:101B9000FEF785FE172800D116E0284600F076F8FB
:101BA00000F0080040B14FF4027101EB451008212C
:101BB000FEF794FE002707E04FF4427101EB451059
:101BC000FEF76DFE1528DFD100BF3846BDE8F08175
:101BD0000FB410B5ADF54A7D4FF4487101A8FEF77A
:101BE000CAFACDA8C99001A8C99ACC99FFF740FAC2
:101BF00001A8FEF7CBFA84B2224601A9002000F02A
:101C0000C7FC0020C9900DF54A7D10BC5DF814FB9F
:101C100001B504490098086000BF02480068002828
:101C2000FBD108BD3000002002E000BF411E88B299
:101C30000128FADA704738B504468DF80000694685
:101C40000320ABBE204638BD10B504460422214611
:101C5000900100F059FF10BD0146024830F8110014
:101C600070470000A00A002010B504460422214657
:101C70004FF4706000F048FF10BD10B50446042218
:101C800021464FF4A06000F03FFF10BD10B50446A0
:101C90004FF4027101EB4410FEF701FE10BD70B568
:101CA00004460025002600BF42F2086101EB441003
:101CB000FEF7F5FD064642F2087101EB4410FEF70F
:101CC000EEFD00EB062086B27EB142F2086101EB28
:101CD0004410FEF7E4FD054642F2087101EB4410A2
:101CE000FEF7DDFD00EB052085B2B542DCD12846CC
:101CF00070BD10B504464FF4427101EB4410FEF77D
:101D0000CEFD10BD70B504460025002600BF42F28E
:101D1000080101EB4410FEF7C2FD064642F208112D
:101D200001EB4410FEF7BBFD00EB062086B27EB14E
:101D300042F2080101EB4410FEF7B1FD054642F204
:101D4000081101EB4410FEF7AAFD00EB052085B257
:101D5000B542DCD1284670BD10B586B00446052CCE
:101D600022D2DFE804F0032242648600012144F21B
:101D70000400FEF723FE4FF40070ADF814000320BA
:101D80008DF8160018208DF8170005A9AD48FEF74C
:101D9000EBFC4FF48060ADF8140004208DF81700C0
:101DA00005A9A848FEF7E0FC83E001210420FEF726
:101DB00005FE01214804FEF7F1FD0420ADF81400F2
:101DC00003208DF8160018208DF8170005A99D48EE
:101DD000FEF7CAFC0820ADF8140004208DF81700A7
:101DE00005A99848FEF7C0FC63E001210820FEF732
:101DF000E5FD01218804FEF7D1FD4FF48060ADF8C8
:101E0000140003208DF8160018208DF8170005A97E
:101E10008D48FEF7A9FC4FF40060ADF814000420D3
:101E20008DF8170005A98848FEF79EFC41E00121C6
:101E30001020FEF7C3FD0121C804FEF7AFFD4FF4EB
:101E40008060ADF8140003208DF8160018208DF87E
:101E5000170005A97D48FEF787FC4FF40060ADF838
:101E6000140004208DF8170005A97848FEF77CFCC3
:101E70001FE001213020FEF7A1FD01210805FEF73A
:101E80008DFD4FF48050ADF8140003208DF816003E
:101E900018208DF8170005A96C48FEF765FC042092
:101EA000ADF814008DF8170005A96948FEF75CFC31
:101EB00000BF00BF4FF4164001900020ADF80800AD
:101EC000ADF80A00ADF80C000C20ADF80E000020B3
:101ED000ADF810004FF4E060FEF754FD052C25D25C
:101EE000DFE804F0032547698B0040F2255159488B
:101EF000FEF75EFF01A95748FEF7CCFF012240F232
:101F000025515448FEF7A0FF25208DF80000002041
:101F10008DF8010001208DF802008DF8030068465D
:101F2000FEF7F8FC01214B48FEF74BFF86E040F23C
:101F300025514948FEF73CFF01A94748FEF7AAFF93
:101F4000012240F225514448FEF77EFF26208DF8FD
:101F5000000000208DF8010001208DF802008DF8AE
:101F600003006846FEF7D6FC01213B48FEF729FF37
:101F700064E040F225513948FEF71AFF01A93748BD
:101F8000FEF788FF012240F225513448FEF75CFF3E
:101F900027208DF8000000208DF8010001208DF829
:101FA00002008DF803006846FEF7B4FC01212B48BF
:101FB000FEF707FF42E040F225512948FEF7F8FE00
:101FC00001A92748FEF766FF012240F22551244867
:101FD000FEF73AFF34208DF8000000208DF8010054
:101FE00001208DF802008DF803006846FEF792FC90
:101FF00001211B48FEF7E5FE20E040F2255119487B
:10200000FEF7D6FE01A91748FEF744FF012240F271
:1020100025511448FEF718FF35208DF800000020E8
:102020008DF8010001208DF802008DF8030068464C
:10203000FEF770FC01210B48FEF7C3FE00BF06B09F
:1020400010BD000000080140000C014000100140DC
:1020500000140140003801400044004000480040A6
:10206000004C00400050004010B5FEF733FBFEF777
:102070009BFF00F077F810BD70B50546052D12D214
:10208000DFE805F003070B0F10000C4C0C48206034
:1020900009E00C4C0C48206005E00C4C0C4820601A
:1020A00001E000E000BF00BF00206060A060A088E9
:1020B000401CA0812846FFF74FFE70BD700600202F
:1020C000700400208008002080060020900A002074
:1020D0009008002000BFFEF71BFE00F07DFC0020F2
:1020E000FFF7CAFFFFF7C0FF00201349088022E076
:1020F00000F092F811480078012802D100200F4921
:1021000008700F48B0F900001E2814DD0D490020AA
:1021100000F002F90849088008460088002807DD19
:102120000846018808A0FFF753FD002002490880F7
:10213000002003490880DBE728000020340000204D
:102140002C000020700000207468652072656365B3
:10215000697665206C656E206973202564200D0A00
:102160000000000008B5FEF7DFFC00F081FA00F087
:10217000BDFA002000F028FB0A48C078009009480A
:1021800083784278017808A0FFF722FD0E48018885
:102190000EA0FFF71DFD13A0FFF71AFD17A0FFF714
:1021A00017FD08BD5000002054435020536572763F
:1021B00065722049503A2025642E25642E25642E10
:1021C0002564200D0A0000005400002054435020D4
:1021D00053657276657220506F72743A20256420C0
:1021E0000D0A0000573535303020496E69742043A0
:1021F0006F6D706C657465210D0A00005374617217
:10220000742054435020436C69656E742054657388
:1022100074210D0A0000000010B50020FFF769FDD1
:1022200000283BD0132804D017280CD01C283FD1FD
:102230002DE020A0FFF7CCFC244802882449002090
:10224000FFF74AFC34E00020FFF720FD00F001001A
:1022500018B10121002000F0FFF90020FFF71FFD59
:102260001C4908800846008800280FDD08460288BF
:102270001949002000F074F8174918A0FFF7A8FCCE
:10228000144802881449002000F0D6F810E015A088
:10229000FFF79EFC0020FFF705FC09E017A0FFF701
:1022A00097FC202300220121104600F097FA00BF7E
:1022B00000BF10BD736F636B657420696E69742015
:1022C0002E2E2E2E2E2E2E210D0A00005400002020
:1022D0005000002058000020B610002025730D0A81
:1022E00000000000736F636B657420776169742E62
:1022F0002E2E2E2E2E2E210D0A000000736F636BE2
:1023000065742020636C6F7365642E2E2E2E2E2E26
:102310002E210D0A0000000070B504460D46052C64
:1023200015D2DFE804F003080D121300294609480E
:1023300000F086FB70BD2946074800F081FBF9E7F5
:102340002946064800F07CFBF4E700E000BF00BF30
:1023500000BFEFE77006002080080020900A0020F0
:102360002DE9F04104460E4615460027002D15DDE7
:102370002A463146204600F015F84FF4847101EBEF
:1023800044104021FEF7AAFA00BF4FF4847101EB1C
:102390004410FEF784FA0028F7D12F463846BDE8EE
:1023A000F08100002DE9F04104460F461646002555
:1023B000A8462EB9214618A0FEF74AFEBDE8F081D6
:1023C00042F6080101EB4410FEF769FA054642F6B1
:1023D000081101EB4410FEF762FA00EB052085B20C
:1023E000280200EB441000F11808324639464046F6
:1023F00000F08AFBA81985B2290A42F6080202EB0E
:102400004410FEF76BFAE9B242F6081202EB4410F0
:10241000FEF764FA00BFD1E743483A20256420550F
:102420006E657870656374656432206C656E677480
:102430006820300D0A0000002DE9F0470446884668
:10244000164600250027A9462046FFF705FCB042A6
:1024500004DA2046FFF700FC074600E0374600BFDD
:102460002046FFF74FFC81464FF4427101EB4410C8
:10247000FEF715FA0546172D03D01C2D01D00027B5
:1024800001E0B945ECDB00BF3A464146204600F08A
:1024900049F84FF4847101EB44102021FEF71EFA35
:1024A00000BF4FF4847101EB4410FEF7F8F90028E7
:1024B000F7D113E04FF4427101EB4410FEF7EFF94E
:1024C0000546172D0AD01C2D08D011A0FEF7C0FD1F
:1024D0002046FFF7E7FA0020BDE8F0874FF40271CD
:1024E00001EB4410FEF7DBF900F010001028E1D1F9
:1024F0004FF4027101EB44101021FEF7EFF94FF495
:10250000027101EB44101021FEF7E8F93846E3E7C9
:1025100053454E445F4F4B2050726F626C656D2186
:10252000210D0A002DE9F04104460F46164600250C
:10253000A8460EB9BDE8F08142F2084101EB441013
:10254000FEF7ADF9054642F2085101EB4410FEF7E3
:10255000A6F900EB052085B2280200EB441000F13B
:10256000100832463946404600F002FBA81985B2F1
:10257000290A42F2084202EB4410FEF7AFF9E9B231
:1025800042F2085202EB4410FEF7A8F900BFD1E76F
:102590002DE9F04105460F4690460026052D0DD247
:1025A000DFE805F0030507090B000B4C06E00B4CB8
:1025B00004E00B4C02E00B4C00E000BF00BF002623
:1025C00005E0B95D204600F08FFA701C86B24645E2
:1025D000F7DBBDE8F0810000003801400044004016
:1025E00000480040004C004010B50446042221463B
:1025F000900100F0BDFA10BD10B5044621464FF41D
:10260000D850FEF76BF910BD10B50446210A4FF4FF
:10261000C850FEF763F9E1B24FF4D050FEF75EF90F
:1026200010BD10B50446062221464FF4106000F09C
:102630009FFA10BD10B50446042221464FF4706085
:1026400000F096FA10BD10B50446042221464FF45E
:10265000A06000F08DFA10BD70B504460D464FF431
:10266000027101EB44102946FEF738F970BD0000F5
:1026700086B017A103C9CDE9040117A00068039033
:1026800016A00068029016A00068019015A00068CE
:10269000009015480399C160029901610199416157
:1026A00004994160BDF814100181009981610020F6
:1026B0000D490877012048770020C88381F8200061
:1026C0000120887200210848C17206B070470000DE
:1026D0000008DC1111110000C0A8006EFFFFFF0010
:1026E000C0A8000108080808C00A00201CB524483A
:1026F000FFF797FF22480C30FFF7A5FF2048103066
:10270000FFF772FF1E480830FFF794FF1D491E486F
:1027100000F0C6F84FF4FA60FFF776FF0320FFF7EA
:102720006BFF01A8FFF7A0FA9DF8070000909DF845
:1027300006309DF805209DF8041014A0FFF748FA14
:1027400001A8FFF79AFA9DF8070000909DF806305F
:102750009DF805209DF8041011A0FFF739FA01A893
:10276000FFF772FA9DF8070000909DF806309DF87B
:1027700005209DF804100FA0FFF72AFA1CBD0000E9
:10278000C40A002048000020400000204950203AA0
:102790002025642E25642E25642E25640D0A000054
:1027A000534E203A2025642E25642E25642E256460
:1027B0000D0A00004757203A2025642E25642E2557
:1027C000642E25640D0A000010B5044642F6087117
:1027D00001EB44100221FEF781F810BD2DE9F04114
:1027E00004460D461646984605F00F0001280FD006
:1027F00005F00F0002280BD005F00F00032807D0CA
:1028000005F00F00042803D005F00F00052841D182
:102810002046FFF747F945EA0801082202EB441079
:10282000FEF75CF876B1310A4FF4816202EB441096
:10283000FEF754F8F1B24FF4A16202EB4410FEF738
:102840004DF815E015480088401C144908800A46D8
:102850001288110A4FF4816202EB4410FEF73EF831
:102860000E4A11784FF4A16202EB4410FEF736F8DD
:102870004FF4847101EB44100121FEF72FF800BFE3
:102880004FF4847101EB4410FEF709F80028F7D1EA
:10289000012700E000273846BDE8F0813E00002017
:1028A0002DE9F04105460E460027B846002489E090
:1028B000295D41F6087202EB4410FEF70FF8315D16
:1028C00041F6086202EB4410FEF708F80020404988
:1028D00021F814003F4921F81400B7F5804F32DC8D
:1028E000285D042816D004DC012807D0022823D153
:1028F0000AE0082814D010281ED117E04FF4806099
:10290000334921F814001DE04FF40060304921F8EC
:10291000140017E04FF480502D4921F8140011E005
:102920004FF400502A4921F814000BE04FF4804086
:10293000274921F8140005E04FF40060254921F8EB
:10294000140000BF00BFB8F5804F32DC305D0428B2
:1029500016D004DC012807D0022823D10AE0082879
:1029600014D010281ED117E04FF48060194921F8C7
:1029700014001DE04FF40060164921F8140017E020
:102980004FF48050134921F8140011E04FF4005027
:10299000104921F814000BE04FF480400D4921F854
:1029A000140005E04FF400600A4921F8140000BF4C
:1029B00000BF074830F814000744064830F81400F8
:1029C0008044641C082CFFF673AFBDE8F081000062
:1029D000A00A0020B00A002030B5164800684FF465
:1029E0007A72B0FBF2F1B1F1807F01D301201DE0DA
:1029F00021F07F40401E4FF0E022506150170F221F
:102A0000002807DA13071D0E0B4B00F00F04241FDC
:102A10001D5503E013071C0E084B1C5400BF00207B
:102A20004FF0E022906107201061002008B100BF44
:102A3000FEE730BD0000002018ED00E000E400E0FB
:102A400010B502460B4600211089C0F30800948897
:102A5000C4F30804A04201D1002010BD0CE0148989
:102A6000C4F308041068005D58541089C0F30800CE
:102A7000401C9060481C81B21089C0F30800948803
:102A8000C4F30804A042EAD10846E6E770B505465B
:102A90000C46002640F225512846FEF7ABF9B0B1AE
:102AA0002846FEF763FAC6B2A088C0F30800401CAF
:102AB0002189C1F30801884204D0A188C1F308012B
:102AC00020684654A088C0F30800401C606040F2B3
:102AD00027712846FEF78EF928B1002240F22771AF
:102AE0002846FEF7B1F970BD70B504460D4600BF2B
:102AF00080212046FEF771F90028F9D029462046AA
:102B0000FEF739FA70BD00002DE9F04104460F468A
:102B10001546002615B910A0FEF79AFAFDF7B5FE86
:102B2000C4F30740FDF7D4FEC4F30720FDF7D0FE41
:102B300004F0F800FDF7CCFE002605E00020FDF7CC
:102B4000C7FEB855701C86B2AE42F7DBFDF7A2FE99
:102B50002846BDE8F0810000556E657870656374A5
:102B6000656432206C656E67746820300D0A000061
:102B70002DE9F04104460F461546002615B910A070
:102B8000FEF766FAFDF781FEC4F30740FDF7A0FEED
:102B9000C4F30720FDF79CFE04F0F801091DC8B23C
:102BA000FDF796FE002604E0B85DFDF791FE701C6F
:102BB00086B2AE42F8DBFDF76DFE2846BDE8F08137
:102BC000556E657870656374656432206C656E67F8
:102BD000746820300D0A0000F82B00080000002067
:102BE0006000000094100008582C000860000020CD
:102BF000581C0000A410000800A24A0400000000B5
:102C0000000000000102030406070809000000009C
:102C1000010203040102030406070809020406086E
:102C200000000000000000000000000000000000A4
:102C30000000000000000000020202020202020284
:102C400002020202020202023144D9365A1B7017F4
:082C500000000000000000007C
:0400000508000131BD
:00000001FF
